:100000000C94A3000C94CB000C94CB000C94CB006C
:100010000C94CB000C94CB000C94CB000C94CB0034
:100020000C94CB000C94CB000C94CB000C94CB0024
:100030000C94CB000C94CB000C94CB000C94CB0014
:100040000C94D4020C94CB000C94A2030C941E03C9
:100050000C9459030C94CB000C94CB000C94CB0063
:100060000C94CB000C94CB0007634236B79BD8A707
:100070001A39685618AEBAAB558C1D3CB7CC5763CD
:10008000BD6DEDFD753EF6177231BF000000803F7B
:1000900008000000BE922449123EABAAAA2ABECD97
:1000A000CCCC4C3E00000080BEABAAAAAA3E000009
:1000B0000000BF000000803F000000000008417801
:1000C000D3BB4387D1133D190E3CC3BD4282AD2B38
:1000D0003E68EC8276BED98FE1A93E4C80EFFFBE30
:1000E00001C4FF7F3F00000000000000000023006B
:1000F0002600290000000000240027002A0000003C
:100100000000250028002B00040404040404040457
:1001100002020202020203030303030301020408B2
:100120001020408001020408102001020408102061
:1001300000000008000201000003040700000000A6
:1001400000000000890811241FBECFEFD8E0DEBFF9
:10015000CDBF11E0A0E0B1E0E8E7F9E102C0059011
:100160000D92AC33B107D9F724E0ACE3B1E001C0A4
:100170001D92A13CB207E1F710E0C3EAD0E004C051
:100180002197FE010E94B40CC23AD107C9F70E9420
:100190000D040C94BA0C0C940000FC018381813096
:1001A00091F4468157816085718582859385A48508
:1001B000B585481B590B6A0B7B0B81E0443F5140CE
:1001C0006105710508F480E00895833081F028F41A
:1001D000813099F08230A1F008958730A9F08830FD
:1001E000B9F08430D1F4809180008F7D03C080917C
:1001F00080008F7780938000089584B58F7702C048
:1002000084B58F7D84BD08958091B0008F7703C041
:100210008091B0008F7D8093B00008951F93CF939D
:10022000DF93282F30E0F901E05DFE4F8491F90162
:10023000E45EFE4FD491F901E85FFE4FC491CC23F8
:10024000C9F0162F81110E94E500EC2FF0E0EE0FAF
:10025000FF1FE250FF4FA591B4918FB7F894111191
:1002600005C09C91ED2FE095E92302C0EC91ED2BA8
:10027000EC938FBFDF91CF911F910895CF93DF93C0
:1002800090E0FC01E45EFE4F2491FC01E85FFE4F2C
:100290008491882361F190E0880F991FFC01EC5054
:1002A000FF4FC591D491FC01E250FF4FA591B4914D
:1002B000611109C09FB7F8948881209582238883B3
:1002C000EC912E230BC0623061F49FB7F894388113
:1002D000822F809583238883EC912E2B2C939FBFB4
:1002E00006C08FB7F894E8812E2B28838FBFDF914B
:1002F000CF9108952FB7F89460914601709147010E
:1003000080914801909149012FBF0895682F83E1A2
:100310000E940E0161E082E10E940E0160E082E134
:100320000C940E01FC018381882321F081E09581EA
:10033000911101C080E008958F929F92AF92BF9279
:10034000CF92DF92EF92FF920F931F93CF93DF93A1
:10035000EC010E947A016B017C0160933D01709376
:100360003E0180933F0190934001288130E0F901E4
:10037000E05DFE4F8491F901E45EFE4F1491F901B6
:10038000E85FFE4F0491002379F081110E94E5009F
:10039000E02FF0E0EE0FFF1FE651FF4FA591B49163
:1003A000EC91E12381E009F480E080933C019A81A3
:1003B000992321F091E0892780933C018A859B85D0
:1003C000AC85BD8546015701881A990AAA0ABB0A5D
:1003D0004E855F85688979899B8184169506A60676
:1003E000B70638F4CE82DF82E886F9861D82892F2F
:1003F00012C09C8380913C018B83CE82DF82E88691
:10040000F986891739F0CA86DB86EC86FD8691E08D
:100410009D8301C01D82DF91CF911F910F91FF90AD
:10042000EF90DF90CF90BF90AF909F908F90089506
:10043000EF92FF920F931F93CF93DF93EC01862FE0
:10044000688349832A83EE86FF86088B198B4423B1
:1004500011F062E001C060E00E943E0181E08B8308
:100460008A8181111B820E947A016E837F83888733
:1004700099872B812C831D826A877B878C879D8738
:10048000DF91CF911F910F91FF90EF9008954F92C0
:100490005F926F927F928F929F92AF92BF92FF92E4
:1004A0000F931F93CF93DF93F82E6FEF70E0681BCD
:1004B0007109072E000C880B990B0E94E5092B018E
:1004C0003C010AE513E0C0E0D0E0BE010D2E000CB7
:1004D000880B990B0E94E50920E030E048EC52E4DB
:1004E0000E949A0A20E030E04FE753E40E943B0963
:1004F0004B015C0120E030E040E051E40E9436090D
:1005000018164CF023E333E941E654E4C501B40185
:100510000E943B0914C020E030E040E851E4C501EE
:10052000B4010E94CA0820E030E048EE52E40E9484
:100530003B0920E030E040E450E40E94070BA301B7
:1005400092010E949A0A4B015C0120E030E0A9016F
:100550000E94950A20E030E040E05FE387FD05C09F
:10056000C501B4010E94CA0804C0C501B4010E94BB
:10057000C9080E94AD09962F9F0DF80191938F0134
:100580002196C115F1E0DF0709F09FCFDF91CF91F0
:100590001F910F91FF90BF90AF909F908F907F9091
:1005A0006F905F904F9008951F920F920FB60F9229
:1005B00011242F933F938F939F93AF93BF93809179
:1005C000460190914701A0914801B09149013091B5
:1005D000450123E0230F2D3720F40196A11DB11D05
:1005E00005C026E8230F0296A11DB11D20934501E9
:1005F0008093460190934701A0934801B09349012D
:100600008091410190914201A0914301B091440138
:100610000196A11DB11D8093410190934201A093C9
:100620004301B0934401BF91AF919F918F913F914E
:100630002F910F900FBE0F901F9018951F920F9241
:100640000FB60F9211242F933F938F939F93EF93A5
:10065000FF9380914E0190914F019C012F5F3F4F7E
:1006600030934F0120934E01FC01E75AFE4F8081E9
:100670008093C600809101019091020120914E016A
:1006800030914F018217930748F48FEF9FEF9093BB
:100690004F0180934E0188E48093C100FF91EF9158
:1006A0009F918F913F912F910F900FBE0F901F90B0
:1006B00018951F920F920FB60F9211242F933F930C
:1006C0008F939F93209153013091540180914E015B
:1006D00090914F0121303105A9F48F3F2FEF920700
:1006E00089F41092C0001092C50089E08093C40084
:1006F00086E28093C2001092C60010924F011092C1
:100700004E0117C0892BA9F41092C0001092C500A9
:1007100083E08093C4008EE08093C20088E28093DF
:10072000C1001092C60081E090E090934F01809349
:100730004E019F918F913F912F910F900FBE0F907F
:100740001F9018951F920F920FB60F9211242F939E
:100750003F934F935F936F937F938F939F93AF9349
:10076000BF93EF93FF932091C0008091C6009091BA
:10077000500124FF06C081E08093500189E591E09B
:1007800016C09130E1F4811117C082E080935001CE
:100790000E947A016093550170935601809357012E
:1007A0009093580180914C0190914D010196909346
:1007B0004D0180934C0120C0109250011DC0923019
:1007C000D9F4E0914C01F0914D019081981721F0FE
:1007D00091E090930001808380914A0190914B01B8
:1007E000E817F90721F41092500110920001319698
:1007F000F0934D01E0934C01FF91EF91BF91AF91C8
:100800009F918F917F916F915F914F913F912F9128
:100810000F900FBE0F901F901895CF93DF9300D0CD
:1008200000D0CDB7DEB7789484B5826084BD84B53E
:10083000816084BD85B5826085BD85B5816085BDDB
:1008400080916E00816080936E0010928100809193
:10085000810082608093810080918100816080931B
:100860008100809180008160809380008091B10040
:1008700084608093B1008091B00081608093B0006B
:1008800080917A00846080937A0080917A008260FF
:1008900080937A0080917A00816080937A008091C1
:1008A0007A00806880937A001092C10082E090E024
:1008B00090935201809351011092500110924F0178
:1008C00010924E0189E591E090934D0180934C0187
:1008D0000E947A01609355017093560180935701ED
:1008E00090935801E9E5F1E0119223E0EA35F2072F
:1008F000D9F782E090E0909354018093530161E036
:100900000E943E0160E082E00E940E0180E9809337
:10091000C1001092C0001092C50083E08093C40013
:100920008EE08093C20080E092E090930201809379
:1009300001018091010190910201875A9E4F90938D
:100940004B0180934A0161E081E10E943E0160E039
:1009500081E10E940E0161E082E10E943E0160E0BF
:1009600082E10E940E0161E083E10E943E0160E0AD
:1009700083E10E940E0180E090E00E94B308809322
:10098000050181E090E00E94B30880930601809108
:10099000050190910601009739F0813032E093070C
:1009A00028F080E092E002C081E090E090930601A0
:1009B0008093050182E090E00E94B30880936A046E
:1009C0000E9447020E947A01DC01CB01805D9A48B7
:1009D000AF4FBF4F80936F0490937004A093710446
:1009E000B093720404E610E05AE0E52EF12C812C5D
:1009F000912C5401839448EE642E43E0742E0E949F
:100A00007A01209155013091560140915701509142
:100A10005801DC01CB01821B930BA40BB50B809317
:100A2000070190930801A0930901B0930A0121E006
:100A3000843F9140A105B10508F020E02093C00457
:100A40003AE5C32E34E0D32E1B821A828091050131
:100A5000909106012A813B81820F931F813032E001
:100A6000930780F4009711F481E090E0FC01E75ACD
:100A7000FE4F908190935E0480916A04981710F461
:100A800080935E04E0915E04D6018C91E81709F42E
:100A900063C0EC93F0E0E65AFC4F3080432C512CBD
:100AA000EA81FB81E55FFE4F208061E0822D0E949C
:100AB0003E014114510409F449C0BFEF4B165104E3
:100AC00009F446C0E22DF0E0E05DFE4FE491E33032
:100AD000F9F048F4E130B9F0E230A1F584B5806274
:100AE00084BD38BC39C0E730E9F0E83019F1E430B2
:100AF00049F58091800080628093800050928B0045
:100B000040928A0029C084B5806884BD37BC24C067
:100B1000809180008068809380005092890040928C
:100B200088001AC08091B00080688093B000309235
:100B3000B30012C08091B00080628093B000309208
:100B4000B4000AC020E84216510414F460E001C069
:100B500061E0822D0E940E012A813B812F5F3F4F71
:100B60003B832A833FEFC31AD30A2A813B81243077
:100B7000310509F06BCF3091BF043A834091C00436
:100B80002091BD043091BE04283E53E03507B4F0F7
:100B900080E0E82FF0E0EB59FB4F10829091650464
:100BA0009068909365048F5F833099F78093690410
:100BB0002A81213009F041C087E743C0C901B8014B
:100BC0000E948C0CB901681B790BCB01B8010E9403
:100BD0008C0CE62F60936704C901B7010E948C0C4E
:100BE000D901A81BB90BCD01B4E6EB02801991091C
:100BF00011249093640480936304B7010E948C0CC9
:100C00006093660454E6E59F201911247AE0679FFB
:100C1000201911242093650480E0A82FB0E0AB597F
:100C2000BB4FEC910E2E000CFF0BE15DFE4F90814F
:100C30009C938F5F833089F7B9CF2A81223021F4CA
:100C400087E68093680402C010926804809168046B
:100C5000442311F0806801C08F778093680440912D
:100C60005F045091600460916104709162041C8281
:100C70008C818430F1F190E0FC01EB59FB4FA081B5
:100C80000A2E000CBB0B23E0880F991F2A95E1F771
:100C90009C01215F3E4F690180E090E0F601E80F82
:100CA000F91F9D01082E02C0359527950A94E2F799
:100CB00014012501008004C0220C331C441C551C67
:100CC0000A94D2F720FF05C04229532964297529C7
:100CD00008C02094309440945094422153216421C0
:100CE0007521019688309105C9F63C813F5F3C83B0
:100CF000BFCF40935F04509360046093610470938E
:100D0000620460E081E10E940E0110926904D090BB
:100D100069043FE13D15D8F080915F049091600433
:100D2000A0916104B09162040D2C04C0B695A79502
:100D3000979587950A94D2F780FF02C081E001C0A1
:100D400080E00E948601D394D0926904E0CF61E0F4
:100D500081E10E940E0160E081E10E940E01D12C30
:100D6000D092BC046D2D8AEA94E00E949C016D2D06
:100D700088E994E00E949C016D2D86E894E00E9431
:100D80009C016D2D84E794E00E949C018AEA94E026
:100D90000E9492018823D9F02A81213071F048F015
:100DA0002230A9F41092BF048091050190910601B0
:100DB0000AC031E03093BF040AC082E08093BF04D0
:100DC0008091730490E09093BE048093BD04D09012
:100DD000BF04D1101DC00E947A0120916F04309190
:100DE0007004409171045091720462177307840774
:100DF000950728F07092BE046092BD0499C080915E
:100E00000501909106019093BE048093BD0490C0AB
:100E10000E947A01DC01CB01805D9A48AF4FBF4F41
:100E200080936F0490937004A0937104B093720444
:100E300051E0D5127DC0C0900301D0900401D09242
:100E4000BE04C092BD0486E894E00E94CD008823D1
:100E500081F00E947A0120916B0430916C044091E2
:100E60006D0450916E04621773078407950708F0AC
:100E7000F8C088E994E00E94CD00882381F00E94A8
:100E80007A0120916B0430916C0440916D04509173
:100E90006E04621773078407950708F0F9C086E8A7
:100EA00094E00E949201882349F08091030190917F
:100EB00004010197909304018093030188E994E071
:100EC0000E949201882349F08091030190910401CE
:100ED0000196909304018093030184E794E00E94BB
:100EE0009201882369F1609103018091040160936C
:100EF0000501809306011092BF0480E090E06983B1
:100F00000E94B3086981681721F080E090E00E9498
:100F1000BB086091060181E090E069830E94B308FC
:100F20006981681769F081E090E00E94BB0808C001
:100F30008091050190910601909304018093030133
:100F40008091030190910401892B31F460E072E0FB
:100F50007093040160930301809103019091040157
:100F60008130924030F081E090E0909304018093D2
:100F700003018091BF04823009F067C0D0907304F0
:100F80008D2D90E09093BE048093BD0486E894E09C
:100F90000E94CD00882381F00E947A0120916B0489
:100FA00030916C0440916D0450916E046217730788
:100FB0008407950708F085C088E994E00E94CD0079
:100FC000882381F00E947A0120916B0430916C0497
:100FD00040916D0450916E04621773078407950762
:100FE00008F082C086E894E00E949201882329F0EC
:100FF0008091730481508093730488E994E00E9487
:101000009201882329F0809173048F5F8093730489
:1010100084E794E00E9492018823D9F060917304E0
:1010200060936A041092BF0482E090E069830E949A
:10103000B3086981681721F082E090E00E94BB0844
:1010400080916A040E94470204C080916A048093E0
:101050007304A0E0B0E0AB2B09F4D1CC0E940000F7
:10106000CACCB1E0CB1AD108D0920401C0920301DE
:101070000E947A01DC01CB014496A11DB11D809331
:101080006B0490936C04A0936D04B0936E04F1CE46
:101090008091030190910401019690930401809343
:1010A00003010E947A01DC01CB014496A11DB11D10
:1010B00080936B0490936C04A0936D04B0936E04C2
:1010C000EECEDA94D09273040E947A01DC01CB0157
:1010D0004496A11DB11D80936B0490936C04A09362
:1010E0006D04B0936E0468CF809173048F5F80931A
:1010F00073040E947A01DC01CB014496A11DB11D4D
:1011000080936B0490936C04A0936D04B0936E0471
:1011100069CFEF92FF920F931F931EE1E12EF12C06
:1011200000E010E021E041E06FE08AEA94E00E94F4
:10113000180221E041E06EE088E994E00E94180284
:1011400021E041E06CE086E894E00E94180221E092
:1011500041E06BE084E794E00E9418021F910F9138
:10116000FF90EF900895F999FECF92BD81BDF89A56
:10117000992780B50895262FF999FECF1FBA92BD01
:1011800081BD20BD0FB6F894FA9AF99A0FBE019668
:1011900008955058BB27AA270E94E1080C945B0AC7
:1011A0000E944D0A38F00E94540A20F039F49F3F03
:1011B00019F426F40C944A0A0EF4E095E7FB0C941B
:1011C000440AE92F0E946C0A58F3BA1762077307A2
:1011D0008407950720F079F4A6F50C948E0A0EF496
:1011E000E0950B2EBA2FA02D0B01B90190010C0137
:1011F000CA01A0011124FF27591B99F0593F50F44F
:10120000503E68F11A16F040A22F232F342F4427A6
:10121000585FF3CF469537952795A795F04053959E
:10122000C9F77EF41F16BA0B620B730B840BBAF06E
:101230009150A1F0FF0FBB1F661F771F881FC2F7D9
:101240000EC0BA0F621F731F841F48F487957795ED
:101250006795B795F7959E3F08F0B0CF9395880FA7
:1012600008F09927EE0F9795879508950E94200A18
:1012700008F481E008950E944F090C945B0A0E94D3
:10128000540A58F00E944D0A40F029F45F3F29F0BB
:101290000C94440A51110C948F0A0C944A0A0E942F
:1012A0006C0A68F39923B1F3552391F3951B550B01
:1012B000BB27AA2762177307840738F09F5F5F4F29
:1012C000220F331F441FAA1FA9F335D00E2E3AF068
:1012D000E0E832D091505040E695001CCAF72BD080
:1012E000FE2F29D0660F771F881FBB1F26173707D1
:1012F0004807AB07B0E809F0BB0B802DBF01FF2703
:1013000093585F4F3AF09E3F510578F00C94440A91
:101310000C948F0A5F3FE4F3983ED4F3869577955B
:101320006795B795F7959F5FC9F7880F911D9695BB
:10133000879597F90895E1E0660F771F881FBB1F17
:10134000621773078407BA0720F0621B730B840BC4
:10135000BA0BEE1F88F7E09508950E94B4096894CF
:10136000B1110C948F0A08950E94740A88F09F5757
:1013700098F0B92F9927B751B0F0E1F0660F771FB9
:10138000881F991F1AF0BA95C9F714C0B13091F0AF
:101390000E948E0AB1E008950C948E0A672F782F70
:1013A0008827B85F39F0B93FCCF386957795679574
:1013B000B395D9F73EF490958095709561957F4FE0
:1013C0008F4F9F4F0895E89409C097FB3EF4909586
:1013D0008095709561957F4F8F4F9F4F9923A9F00E
:1013E000F92F96E9BB279395F6958795779567959D
:1013F000B795F111F8CFFAF4BB0F11F460FF1BC0E1
:101400006F5F7F4F8F4F9F4F16C0882311F096E973
:1014100011C0772321F09EE8872F762F05C0662321
:1014200071F096E8862F70E060E02AF09A95660FDA
:10143000771F881FDAF7880F9695879597F9089593
:10144000990F0008550FAA0BE0E8FEEF16161706D5
:10145000E807F907C0F012161306E407F50798F03D
:10146000621B730B840B950B39F40A2661F0232B56
:10147000242B252B21F408950A2609F4A140A695D2
:101480008FEF811D811D089597F99F6780E870E0B7
:1014900060E008959FEF80EC089500240A941616EA
:1014A000170618060906089500240A941216130652
:1014B000140605060895092E0394000C11F48823E0
:1014C00052F0BB0F40F4BF2B11F460FF04C06F5FFC
:1014D0007F4F8F4F9F4F089557FD9058440F551FD2
:1014E00059F05F3F71F04795880F97FB991F61F0A6
:1014F0009F3F79F087950895121613061406551F1D
:10150000F2CF4695F1DF08C0161617061806991F88
:10151000F1CF86957105610508940895E894BB277D
:1015200066277727CB0197F908950E94200A08F4CF
:101530008FEF08950E94AD0A0C945B0A0E944D0A39
:1015400038F00E94540A20F0952311F00C94440ABC
:101550000C944A0A11240C948F0A0E946C0A70F3AE
:10156000959FC1F3950F50E0551F629FF001729F48
:10157000BB27F00DB11D639FAA27F00DB11DAA1F57
:10158000649F6627B00DA11D661F829F2227B00DA4
:10159000A11D621F739FB00DA11D621F839FA00D2F
:1015A000611D221F749F3327A00D611D231F849F7F
:1015B000600D211D822F762F6A2F11249F575040D6
:1015C0009AF0F1F088234AF0EE0FFF1FBB1F661F51
:1015D000771F881F91505040A9F79E3F510580F01A
:1015E0000C94440A0C948F0A5F3FE4F3983ED4F3C2
:1015F000869577956795B795F795E7959F5FC1F7BE
:10160000FE2B880F911D9695879597F90895FA01FD
:10161000EE0FFF1F309621053105A1F1611571050F
:1016200061F48038BFE39B0749F1689490388105E5
:1016300061F08038BFEF9B0741F099234AF5FF3FE7
:10164000E1053105210519F1E8940894E795D901E0
:10165000AA2329F4AB2FBE2FF85FD0F310C0FF5F91
:1016600070F4A695E0F7F73950F019F0FF3A38F426
:101670009F779F930DD00F9007FC9058089546F0E8
:101680000C944A0A60E070E080E89FE308954FE719
:101690009F775F934F933F932F930E94020C2F915C
:1016A0003F914F915F910E949A0A0C945F0B29F42D
:1016B00016F00C94440A0C948E0A0C944A0A0E9468
:1016C000740AA8F39638A0F707F80F92E8942BE372
:1016D0003AEA48EB5FE70E94B00A0F920F920F922E
:1016E0004DB75EB70F920E944A0CE8E6F0E00E9408
:1016F000910B4F915F91EF91FF91E595EE1FFF1FC9
:1017000049F0FE57E0684427EE0F441FFA95E1F7D1
:101710004195550B0E94C40B0F9007FE0C94B80B1B
:101720000895DF93CF931F930F93FF92EF92DF9271
:101730007B018C01689406C0DA2EEF010E94AD0A8D
:10174000FE01E894A5912591359145915591A6F317
:10175000EF010E94E108FE019701A801DA9469F700
:10176000DF90EF90FF900F911F91CF91DF9108953F
:101770009B01AC0160E070E080E89FE30C943B09C2
:101780000C94440A0C947E0C0E94740AD8F399239A
:10179000C9F3940F511DA3F39150504094F059F0A8
:1017A000882332F0660F771F881F91505040C1F791
:1017B0009E3F51052CF7880F911D9695879597F9B7
:1017C00008955F3FACF0983E9CF0BB2786957795D7
:1017D0006795B79508F4B1609395C1F7BB0F58F7BB
:1017E00011F460FFE8CF6F5F7F4F8F4F9F4FE3CFC4
:1017F0000C948F0A16F00C947E0C0C944A0A689490
:101800000C94440A0E94740AA8F39923C1F3AEF31E
:10181000DF93CF931F930F93FF92C92FDD27882368
:101820002AF02197660F771F881FDAF720E030E053
:1018300040E85FEB9FE3883920F0803E38F0219646
:101840008F770E94CA08E0E9F0E004C00E94CA084D
:10185000EDEBF0E00E94910B8B01BE01EC01FB2E41
:101860006F5771097595771F880B990B0E94E509D1
:1018700028E132E741E35FE30E94AD0AAF2D980112
:10188000AE01FF900F911F91CF91DF910E94E1086F
:101890000C945B0AFA01DC01AA0FBB1F9B01AC018F
:1018A000BF5728F4222733274427507820C0B75148
:1018B00090F4AB2F0024469537952795011CA395EE
:1018C000D2F3002071F0220F331F441FB395DAF3D7
:1018D0000ED00C94C90861307105A0E88A07B9469A
:1018E00030F49B01AC0166277727882790783096E3
:1018F00021F0208331834283538308959F3F31F049
:10190000915020F4879577956795B795880F911D2D
:101910009695879597F9089597FB072E16F40094EE
:1019200007D077FD09D00E94A00C07FC05D03EF43B
:10193000909581959F4F0895709561957F4F08957B
:10194000AA1BBB1B51E107C0AA1FBB1FA617B707E5
:1019500010F0A61BB70B881F991F5A95A9F7809501
:101960009095BC01CD010895EE0FFF1F0590F491F5
:08197000E02D0994F894FFCF6B
:1019780001200001000100F40100000A0906051D0C
:10198800121B1C1E10111F151617181913141A06EE
:101998000B040507090A080E0F0001020C0D037E4F
:0C19A800306D79335B5F707F7B007767E8
:00000001FF
