:100000000C946E000C9496000C9496000C94960040
:100010000C9496000C9496000C9496000C94960008
:100020000C9496000C9496000C9496000C949600F8
:100030000C9496000C9496000C9496000C949600E8
:100040000C946A020C9496000C9424030C94B40251
:100050000C9496000C9496000C9496000C949600C8
:100060000C9496000C9496003306580684068D076F
:10007000BE07DF070A0835089608F7085A09C209BB
:1000800000000000230026002900000000002400DA
:1000900027002A0000000000250028002B0004048F
:1000A0000404040404040202020202020303030320
:1000B00003030102040810204080010204081020FC
:1000C00001020408102000000008000201000003E3
:1000D00004070000000000000000250B11241FBED3
:1000E000CFEFD8E0DEBFCDBF24E0ACE5B2E001C089
:1000F0001D92AB3DB207E1F712E0A0E0B1E0EAECFF
:10010000F7E102C005900D92AC35B107D9F710E0C8
:10011000CEE6D0E004C02197FE010E94630BCD36ED
:10012000D107C9F70E9489030C94E30B0C940000DB
:10013000FC018381813091F446815781608571850E
:1001400082859385A485B585481B590B6A0B7B0B6B
:1001500081E0443F51406105710508F480E0089555
:10016000833081F028F4813099F08230A1F0089535
:100170008730A9F08830B9F08430D1F480918000C4
:100180008F7D03C0809180008F77809380000895D9
:1001900084B58F7702C084B58F7D84BD089580912A
:1001A000B0008F7703C08091B0008F7D8093B00046
:1001B00008951F93CF93DF93282F30E0F901EA537E
:1001C000FF4F8491F901EE54FF4FD491F901E256AB
:1001D000FF4FC491CC23C9F0162F81110E94B000AB
:1001E000EC2FF0E0EE0FFF1FEC56FF4FA591B491FE
:1001F0008FB7F894111105C09C91ED2FE095E9237C
:1002000002C0EC91ED2BEC938FBFDF91CF911F914A
:100210000895CF93DF9390E0FC01EE54FF4F2491BB
:10022000FC01E256FF4F8491882361F190E0880F32
:10023000991FFC01E657FF4FC591D491FC01EC5684
:10024000FF4FA591B491611109C09FB7F8948881BF
:10025000209582238883EC912E230BC0623061F4B9
:100260009FB7F8943881822F809583238883EC91FF
:100270002E2B2C939FBF06C08FB7F894E8812E2BAE
:1002800028838FBFDF91CF9108952FB7F8946091A5
:1002900066027091670280916802909169022FBF97
:1002A00008959C01E4E6F0E0BF010E944F0BA90114
:1002B000481B590BCA01BF010E944F0B462F609388
:1002C0000701EAE0F0E0C901BF010E944F0BB9014C
:1002D000681B790BCB0174E6479F801991091124A3
:1002E000BF010E944F0B6093080184E6489F2019CC
:1002F00011244AE0649F20191124209309010895D4
:10030000682F83E10E94D90061E082E10E94D90058
:1003100060E082E10C94D900FC018381882321F004
:1003200081E09581911101C080E008958F929F92A4
:10033000AF92BF92CF92DF92EF92FF920F931F93F3
:10034000CF93DF93EC010E9445016B017C01609328
:100350005D0270935E0280935F0290936002288139
:1003600030E0F901EA53FF4F8491F901EE54FF4F59
:100370001491F901E256FF4F0491002379F08111A5
:100380000E94B000E02FF0E0EE0FFF1FE058FF4F9B
:10039000A591B491EC91E12381E009F480E0809390
:1003A0005C029A81992321F091E0892780935C0275
:1003B0008A859B85AC85BD8546015701881A990AB7
:1003C000AA0ABB0A4E855F85688979899B81841654
:1003D0009506A606B70638F4CE82DF82E886F9864F
:1003E0001D82892F12C09C8380915C028B83CE82F8
:1003F000DF82E886F986891739F0CA86DB86EC86C3
:10040000FD8691E09D8301C01D82DF91CF911F91F8
:100410000F91FF90EF90DF90CF90BF90AF909F90A3
:100420008F900895EF92FF920F931F93CF93DF93D6
:10043000EC01862F688349832A83EE86FF86088B2A
:10044000198B442311F062E001C060E00E940901B1
:1004500081E08B838A8181111B820E9445016E831A
:100460007F83888799872B812C831D826A877B876E
:100470008C879D87DF91CF911F910F91FF90EF9017
:100480000895EF92FF920F931F93CF93DF931F92E4
:10049000CDB7DEB78C017B01FB01608169830E94CF
:1004A0007D0B6981681719F0C8010E94850BC7018F
:1004B0000F90DF91CF911F910F91FF90EF900895D2
:1004C000CF93DF93EB010E947D0B8883CE01DF91F8
:1004D000CF9108951F920F920FB60F9211242F9370
:1004E0003F938F939F93AF93BF93809166029091B8
:1004F0006702A0916802B09169023091650223E021
:10050000230F2D3720F40196A11DB11D05C026E84B
:10051000230F0296A11DB11D2093650280936602F0
:1005200090936702A0936802B09369028091610280
:1005300090916202A0916302B09164020196A11DA4
:10054000B11D8093610290936202A0936302B09305
:100550006402BF91AF919F918F913F912F910F9026
:100560000FBE0F901F9018951F920F920FB60F920B
:1005700011242F933F938F939F93EF93FF93809139
:100580006D0290916E02019739F480916A02909108
:100590006B02019609F43FC080916A0290916B0250
:1005A000892B69F41092C50083E08093C4008EE02B
:1005B0008093C2001092C60081E090E027C0209195
:1005C0006A0230916B0280910001909101018217C3
:1005D00093077CF1E0916A02F0916B02ED58FD4FB8
:1005E00080818093C60020916A0230916B028091D5
:1005F0000001909101012817390734F480916A02B3
:1006000090916B02019602C08FEF9FEF90936B0267
:1006100080936A020EC01092C50088E08093C400E7
:100620008EE08093C2001092C60010926B0210926E
:100630006A02FF91EF919F918F913F912F910F90BF
:100640000FBE0F901F9018951F920F920FB60F922A
:1006500011242F933F934F935F936F937F938F93C7
:100660009F93AF93BF93EF93FF932091C00080912E
:10067000C60090916C0224FF08C081E080936C0258
:1006800010926B0210926A0233C09130B1F4811162
:100690002DC082E080936C0281E090E090936B0229
:1006A00080936A020E94450160936F02709370020A
:1006B00080937102909372021BC09230C9F4E09152
:1006C0006A02F0916B02ED58FD4F808380916A02BF
:1006D00090916B02019690936B0280936A028091D5
:1006E0006A0290916B028115924014F010926C0294
:1006F000FF91EF91BF91AF919F918F917F916F91FA
:100700005F914F913F912F910F900FBE0F901F90CF
:100710001895CF93DF931F92CDB7DEB7789484B549
:10072000826084BD84B5816084BD85B5826085BDED
:1007300085B5816085BD80916E00816080936E007B
:10074000109281008091810082608093810080916D
:10075000810081608093810080918000816080931E
:1007600080008091B10084608093B1008091B000DE
:1007700081608093B00080917A00846080937A00D9
:1007800080917A00826080937A0080917A00816003
:1007900080937A0080917A00806880937A0010922A
:1007A000C10010926E0210926D0210926C021092B3
:1007B0006B0210926A020E94450160936F0270936F
:1007C0007002809371029093720280E090E0FC01CD
:1007D000ED58FD4F10820196813022E09207B9F763
:1007E00082E090E090936E0280936D0280916D02A2
:1007F00090916E020197D1F461E082E00E940901BC
:1008000061E082E00E94D90088E28093C1001092EA
:10081000C50088E08093C4008EE08093C2001092EF
:10082000C60010926B0210926A0219C080916D028C
:1008300090916E02029799F461E082E00E940901B2
:1008400060E082E00E94D90080E98093C1001092AC
:10085000C50083E08093C4008EE08093C20061E015
:1008600081E10E94090160E081E10E94D90061E01C
:1008700082E10E94090160E082E10E94D90061E00A
:1008800083E10E94090160E083E10E94D90080E0D9
:1008900090E00E947D0B8093040181E090E00E9433
:1008A0007D0B8093050180910401909105010097D3
:1008B00039F0813032E0930728F080E092E002C006
:1008C00081E090E090930501809304016BE874E06F
:1008D00082E090E00E94600203E010E0B8016058FE
:1008E0007B4FC8010E9460020F5F1F4F0730110548
:1008F000A9F70E944501DC01CB01805D9A48AF4F0A
:10090000BF4F80938D0490938E04A0938F04B09377
:100910009004812C912C5401839400E012E0EE2489
:10092000E394F12C0E94450140906F0250907002B8
:100930006090710270907202DC01CB0184199509FC
:10094000A609B70980930A0190930B01A0930C01AB
:10095000B0930D0121E0843F9140A105B10508F05D
:1009600020E02093DA0434E7C32E34E0D32E412C68
:10097000512C80918B04882391F0809104019091F7
:100980000501840D951D8130F2E09F0770F40097FA
:1009900011F481E090E0FC01ED58FD4F03C0F2013D
:1009A000ED57FB4F80818093780420917804D60125
:1009B0008C91281709F476C0B3E04B16510469F402
:1009C00030E0A6EEB0E00E94D40B2FEF30E040E024
:1009D00050E00E94930B20937804E0917804D601B4
:1009E000EC93F0E0EE5EFE4F2080622C712CF20161
:1009F000EE5EFD4F308061E0832D0E94090161149D
:100A0000710409F449C0BFEF6B16710409F446C0C4
:100A1000E32DF0E0EA53FF4FE491E330F9F048F4BE
:100A2000E130B9F0E230A1F584B5806284BD28BC24
:100A300039C0E730E9F0E83019F1E43049F5809148
:100A4000800080628093800070928B0060928A00A8
:100A500029C084B5806884BD27BC24C080918000F3
:100A600080688093800070928900609288001AC02C
:100A70008091B00080688093B0002092B30012C0D3
:100A80008091B00080628093B0002092B4000AC0D0
:100A9000E0E86E16710414F460E001C061E0832D9B
:100AA0000E94D900FFEF4F1A5F0A2FEFC21AD20A35
:100AB00034E04316510409F05CCF9091DA04309190
:100AC000080120910701809106014091090140939E
:100AD0007E0430937F04209380048093810480E01F
:100AE000A82FB0E0A258BB4FEC910E2E000CFF0BCC
:100AF000EA5CFD4F20812C938F5F843089F78091D1
:100B00007E04806880937E0480918104992311F093
:100B1000806801C08F778093810410927D0440919A
:100B2000790450917A0460917B0470917C04A0E078
:100B3000A430E9F18A2F90E0FC01E258FB4F2080BD
:100B4000022C000C330823E0880F991F2A95E1F747
:100B5000FC01EA5EFD4F6F0180E090E0F601E80FD6
:100B6000F91F9101082E02C0359527950A94E2F7E6
:100B700024013501008004C0440C551C661C771C00
:100B80000A94D2F720FF05C0442955296629772900
:100B900008C040945094609470944421552166217B
:100BA0007721019688309105C9F6AF5FC1CF409398
:100BB000790450937A0460937B0470937C0460E022
:100BC00081E10E94D90010927D04D0907D04FFE164
:100BD000FD15D8F08091790490917A04A0917B045E
:100BE000B0917C040D2C04C0B695A7959795879578
:100BF0000A94D2F780FF02C081E001C080E00E9429
:100C00008001D394D0927D04E0CF61E081E10E9425
:100C1000D90060E081E10E94D900D12CD092D904A2
:100C20006D2D87EC94E00E9496016D2D85EB94E08C
:100C30000E9496016D2D83EA94E00E9496016D2D2D
:100C400081E994E00E949601E0918C048E2F90E05F
:100C50008C30910508F0BEC3FC01EC5CFF4F87ECC3
:100C600094E00C94630B0E948C01882321F021E016
:100C700020938C04AFC381E994E00E948C01882307
:100C800019F010928C04A6C380918B04882341F044
:100C90008AE08093060180910401909105016FC361
:100CA0008BE180930601809307018093080190C334
:100CB0000E948C018111E5CF81E994E00E948C01B2
:100CC000882361F082E080938C04809104019091EC
:100CD000050190930301809302017CC385EB94E0AE
:100CE0000E948C018111B4C183EA94E00E948C01BE
:100CF0008111A6C18BE0809306018EE080930701ED
:100D0000809308018CE164C30E948C018111B9CFEA
:100D100081E994E00E948C01882339F131E030931D
:100D20008C0460910201809103016093040180931F
:100D3000050180E090E069830E947D0B698168175E
:100D400021F080E090E00E94850B6091050181E038
:100D500090E069830E947D0B6981681709F43AC3AA
:100D600081E090E00E94850B35C385EB94E00E9402
:100D70008C018823B9F080910201909103010196C2
:100D80009093030180930201892B21F410930301B6
:100D90000093020180910201909103018130924001
:100DA000F0F4B3C083EA94E00E948C018823E1F060
:100DB0008091020190910301019790930301809328
:100DC0000201892B21F41093030100930201809109
:100DD0000201909103018130924008F496C0F09294
:100DE0000301E092020191C085EB94E00E9498001B
:100DF000882309F443C00E94450140908704509025
:100E000088046090890470908A04641575058605CD
:100E10009705A0F1C0900201D0900301BFEFCB1A5B
:100E2000DB0AD0920301C09202010E944501DC015D
:100E3000CB014496A11DB11D809387049093880433
:100E4000A0938904B0938A04CD2821F41093030160
:100E50000093020180910201909103018130924040
:100E600020F0F0920301E09202018BE080930601F2
:100E700080910201909103010E94510183EA94E064
:100E80000E949800882309F440C00E9445014090C8
:100E90008704509088046090890470908A046415D7
:100EA00075058605970588F1C0900201D090030171
:100EB000E1E0CE1AD108D0920301C09202010E9453
:100EC0004501DC01CB014496A11DB11D809387042F
:100ED00090938804A0938904B0938A04CD2821F4C8
:100EE000109303010093020180910201909103018C
:100EF0008130924020F0F0920301E0920201809153
:100F00000201909103010E9451018BE08093060140
:100F1000809102019091030132C20E948C018111E3
:100F2000B0CE81E994E00E948C01882371F0809119
:100F30008B04882341F084E03EC285EB94E00E945C
:100F40008C01882361F185E036C285EB94E00E9434
:100F50008C0181118CCE83EA94E00E948C01811176
:100F600021C287E18093060189E1809307018EE029
:100F7000809308012FE0209309012CC20E948C016C
:100F800081117FCE81E994E00E948C018823A9F22F
:100F900083E080938C0431E030938B041FC083EA9C
:100FA00094E00E948C018111CECF8EE080930601E7
:100FB0008BE0809307019EE19093080109C20E9493
:100FC0008C0181115ECE81E994E00E948C0188231E
:100FD00051F083E080938C0410928B046BE874E0F2
:100FE00082E090E07CC185EB94E00E948C0181114D
:100FF000A2CF83EA94E00E948C0181119CCF8DE105
:10100000809306018EE18093070186E180930801B9
:1010100088E1DEC10E948C01811133CE81E994E028
:101020000E948C01882331F087E080938C048091AA
:101030008304F6C085EB94E00E948C01882311F0B4
:1010400083E0B9C183EA94E00E948C01882311F007
:101050008BE0B1C18DE08093060189E180930701A7
:1010600086E1809308018AE0B3C10E948C0181115E
:1010700008CE81E994E00E948C01882381F088E009
:1010800080938C04809182048093830462E874E0EE
:1010900083E090E00E94410280918404C1C085EB0E
:1010A00094E00E948C01882321F0809182048F5F5C
:1010B00009C083EA94E00E948C01882349F0809162
:1010C0008204815080938204809383049CE118C140
:1010D00085EB94E00E949800882381F00E944501EE
:1010E00040908704509088046090890470908A042E
:1010F000641575058605970508F0A3C183EA94E099
:101100000E949800882381F00E9445014090870446
:10111000509088046090890470908A046415750565
:101120008605970508F0AFC18CE124C10E948C01AF
:101130008111A7CD81E994E00E948C01882381F080
:1011400089E080938C04809182048093840462E817
:1011500074E084E090E00E9441028091850460C0C8
:1011600085EB94E00E948C01882321F08091820419
:101170008F5F09C083EA94E00E948C01882349F0C4
:10118000809182048150809382048093840491E151
:10119000B7C085EB94E00E949800882381F00E94FC
:1011A00045014090870450908804609089047090B5
:1011B0008A04641575058605970508F083C183EADE
:1011C00094E00E949800882381F00E94450140909D
:1011D0008704509088046090890470908A04641594
:1011E00075058605970508F08FC181E1C3C00E948F
:1011F0008C01811146CD81E994E00E948C01882305
:1012000091F08AE080938C0480918204809385041D
:1012100062E874E085E090E00E94410280918604DB
:1012200080938204D7C085EB94E00E948C018823D0
:1012300021F0809182048F5F09C083EA94E00E94CC
:101240008C01882349F0809182048150809382042C
:10125000809385049CE054C085EB94E00E94980044
:10126000882381F00E9445014090870450908804B3
:101270006090890470908A04641575058605970549
:1012800008F061C183EA94E00E949800882381F00D
:101290000E94450140908704509088046090890422
:1012A00070908A04641575058605970508F06DC170
:1012B0008CE060C00E948C018111E3CC81E994E054
:1012C0000E948C01882371F086E080938C048091C9
:1012D00082048093860462E874E086E090E00E94D5
:1012E000410278C085EB94E00E948C01882359F07C
:1012F000809182048F5F809382048093860491E2C0
:10130000909306013BC083EA94E00E948C018823FD
:1013100021F0809182048150EECF85EB94E00E9411
:101320009800882381F00E944501409087045090E6
:1013300088046090890470908A0464157505860598
:10134000970508F041C183EA94E00E949800882341
:1013500081F00E944501409087045090880460907D
:10136000890470908A04641575058605970508F050
:101370004DC181E2809306018091820490E00E9439
:10138000510128C00E948C0181117BCC81E994E03D
:101390000E948C01811175CC85EB94E00E948C0138
:1013A000882311F086E007C083EA94E00E948C0154
:1013B000882321F081E080938C040CC09FE09093FF
:1013C000060182E28093070183E1809308018EE1A8
:1013D000809309018091CC04882399F00E944501F3
:1013E000DC01CB01805D9A48AF4FBF4F80938D04E5
:1013F00090938E04A0938F04B093900410928C0469
:1014000018C00E94450140908D0450908E04609059
:101410008F0470909004641575058605970548F053
:101420008AE08093090180930801809307018093EB
:101430000601A0E0B0E0AB2B09F474CA0E940000E2
:1014400071CA809182048F5F809382040E9445015B
:10145000DC01CB014496A11DB11D809387049093BC
:101460008804A0938904B0938A04809182048093B5
:1014700083048CE180930601809102019091030125
:101480000E9451013BCE809182048150809382045E
:101490000E944501DC01CB014496A11DB11D809342
:1014A000870490938804A0938904B0938A04809160
:1014B00082048093830480910201909103010E9431
:1014C000510132CE809182048F5F809382040E940A
:1014D0004501DC01CB014496A11DB11D8093870419
:1014E00090938804A0938904B0938A048091820425
:1014F0008093840481E180930601809102019091A0
:1015000003010E9451015BCE80918204815080933F
:1015100082040E944501DC01CB014496A11DB11D4E
:101520008093870490938804A0938904B0938A04DD
:101530008091820480938404809102019091030140
:101540000E94510152CE809182048F5F8093820469
:101550000E944501DC01CB014496A11DB11D809381
:10156000870490938804A0938904B0938A0480919F
:101570008204809385048CE08093060180910201AF
:10158000909103010E9451017DCE8091820481508F
:10159000809382040E944501DC01CB014496A11D89
:1015A000B11D8093870490938804A0938904B0931D
:1015B0008A04809182048093850480910201909135
:1015C00003010E94510174CE809182048F5F809349
:1015D00082040E944501DC01CB014496A11DB11D8E
:1015E0008093870490938804A0938904B0938A041D
:1015F000809182048093860481E280930601809129
:101600000201909103010E9451019DCE80918204BC
:101610008150809382040E944501DC01CB014496F5
:10162000A11DB11D8093870490938804A093890421
:10163000B0938A0480918204809386048091020191
:10164000909103010E94510194CEEF92FF920F936B
:101650001F931EE1E12EF12C00E010E021E041E0BB
:101660006FE087EC94E00E94120221E041E06EE01E
:1016700085EB94E00E94120221E041E06CE083EAF5
:1016800094E00E94120221E041E06BE081E994E0E5
:101690000E9412021F910F91FF90EF90089597FB07
:1016A000072E16F4009407D077FD09D00E94690B2D
:1016B00007FC05D03EF4909581959F4F0895709555
:1016C00061957F4F0895EE0FFF1F0590F491E02D77
:1016D0000994AA1BBB1B51E107C0AA1FBB1FA61779
:1016E000B70710F0A61BB70B881F991F5A95A9F7CB
:1016F00080959095BC01CD010895F999FECF92BDDA
:1017000081BDF89A992780B50895262FF999FECFC3
:101710001FBA92BD81BD20BD0FB6F894FA9AF99A0E
:101720000FBE01960895052E97FB1EF400940E94AB
:10173000AA0B57FD07D00E94B20B07FC03D04EF452
:101740000C94AA0B50954095309521953F4F4F4FE3
:101750005F4F089590958095709561957F4F8F4F5D
:101760009F4F0895A1E21A2EAA1BBB1BFD010DC0BD
:10177000AA1FBB1FEE1FFF1FA217B307E407F50741
:1017800020F0A21BB30BE40BF50B661F771F881F1D
:10179000991F1A9469F760957095809590959B01B3
:1017A000AC01BD01CF010895A29FB001B39FC0015C
:1017B000A39F700D811D1124911DB29F700D811D7D
:0A17C0001124911D0895F894FFCF45
:1017CA002000010001000A0A0A0AF40100000100CF
:1017DA0000000000000000010101010101010101F6
:1017EA0002020202020202020203030303030303C8
:1017FA000304040404040405050505050606060693
:10180A000607070707080808080909090A0A0A0A49
:10181A000B0B0B0C0C0C0D0D0D0E0E0F0F0F1010E9
:10182A00111111121213131414151516161717186D
:10183A001819191A1A1B1C1C1D1D1E1F1F202021D6
:10184A0022222324252526272728292A2B2B2C2D1B
:10185A002E2F2F30313233343536363738393A3B3A
:10186A003C3D3E3F4041424344464748494A4B4C2F
:10187A004D4F50515253555657585A5B5C5E5F60F4
:10188A006263646667696A6C6D6E70717374767888
:10189A00797B7C7E8081838486888A8B8D8F9192E6
:1018AA009496989A9B9D9FA1A3A5A7A9ABADAFB10A
:1018BA00B3B5B7B9BBBDBFC1C4C6C8CACCCFD1D3F3
:1018CA00D6D8DADCDFE1E4E6E8EBEDF0F2F5F7FA98
:1018DA00FCFF0A0906051D121B1C1E10111F1516F6
:1018EA0017181913141A060B040507090A080E0F0C
:1018FA000001020C0D037E306D79335B5F707F7BD4
:10190A0000771F4E3D4F475E17063C080E54151DC3
:0C191A006708055B0F3E081C373B080007
:00000001FF
